:020000040000FA
:0400000007EF00F016
:100008000B8209ED00F096EF00F00600040EBE6EBC
:10001800CF0EBD16000E046E000E036E000E066EA7
:10002800000E056E010E016EBD38030B026E015005
:100038000226023ABD500218CF0B0218BD6E000E00
:10004800086E000E076E074A082A08BE35EF00F052
:10005800085009E1320E075CD8A035EF00F037EF01
:1000680000F027EF00F0054A062A06BE45EF00F02B
:10007800065009E1040E055CD8A045EF00F047EFF3
:1000880000F016EF00F0BE2ACF0EBD16034A042A70
:1000980004BE58EF00F0045009E1100E035CD8A02C
:1000A80058EF00F05AEF00F012EF00F0000E0A6E61
:1000B800000E096E040EBE6ECF0EBD16094A0A2A3E
:1000C8000ABE70EF00F0E80E095C030E0A58D8A0CB
:1000D80070EF00F072EF00F05EEF00F00AEF00F052
:1000E8000B921100CA84CA50FC0B0109CA6ED35086
:1000F8008F0B1009D36EBD50F00B0C09BD6E000EAE
:10010800946E000E8B6E9B0ECB6ED08ED00EF26E60
:10011800710EF16E040EBE6ECF0EBD1692EF00F09A
:0E01280007EF00F00B900B92000176EF00F055
:020000040020DA
:08000000FFFFFFFFFFFFFFFF00
:020000040030CA
:0E000000FF081B1EFF8181FF0FC00FE00F40A5
:00000001FF
